:1000000072C000009EC000009CC000009AC00000AA
:1000100098C0000096C0000094C0000092C000008C
:1000200090C000008EC000008CC000008AC000009C
:1000300088C0000086C0000084C0000082C00000AC
:1000400080C000007EC000007CC000007AC00000BC
:1000500078C0000076C0000074C0000072C00000CC
:1000600070C00000E8C0000015C100006AC00000B8
:1000700068C0000066C0000064C0000062C00000EC
:1000800060C000005EC000005CC000005AC00000FC
:100090009EC10000CBC1000054C0000052C000004F
:1000A00050C000004EC000004CC000004AC000001C
:1000B00048C0000046C0000044C0000042C000002C
:1000C00040C000003EC000003CC00000DDC1000098
:1000D0000AC2000036C0000034C2000061C2000045
:1000E00030C00000100111241FBECFEFD1E2DEBFEF
:1000F000CDBF00E00CBF12E0A0E0B2E0EAEBF8E018
:1001000000E00BBF02C007900D92A630B107D9F7EF
:1001100023E0A6E0B2E001C01D92AE31B207E1F7E4
:1001200010E0C3E7D0E000E005C021970109802F6F
:10013000FE0186D3C237D10780E00807B1F749D066
:10014000BAC35ECF78948FEF809369008DB38F60D0
:100150008DBB0895789485B5856085BD81E08093D9
:100160006E000895FC0160817181072E000C880BE0
:10017000990B77D226E636E646EE5FE3D6D23ED23C
:10018000CB010895E7E0F1E0808180648083808185
:1001900080688083EAE0F1E0808180628083E0E231
:1001A000F1E080818A608083E1E2F1E080818A6110
:1001B000808389EF90E09093270180932601089532
:1001C000E8E0F1E080818064808380818F778083A4
:1001D000089589E190E08CD07894D4DF0CE211E0AE
:1001E000C4E1D0E0F801D183C083EADFE5D018167E
:1001F00019067CF486E092E0B5DFA8D080E092E0BA
:10020000CDD08091060290910702A0D083E092E0C9
:10021000C5D08FE39CE90197F1F700C00000E2CF61
:10022000109207021092060286E092E08BDF86E0D1
:1002300092E090CF08951F920F920FB60F92112463
:100240000BB60F922F938F939F93EF93FF93809111
:10025000C0002091C6008871E091DB02EF5FEF7172
:100260009091DA02E91739F0E093DB02F0E0E25214
:10027000FD4F208301C082E08093D902FF91EF916E
:100280009F918F912F910F900BBE0F900FBE0F90EB
:100290001F9018951F920F920FB60F9211240BB654
:1002A0000F928F939F93EF93FF939091DD02809134
:1002B000DC02981769F0E091DC02EF5FEF71E093E8
:1002C000DC02F0E0E250FD4F80818093C60005C063
:1002D000E1ECF0E080818F7D8083FF91EF919F9131
:1002E0008F910F900BBE0F900FBE0F901F9018951F
:1002F0001092DD021092DC021092DB021092DA0200
:10030000992324F422E02093C0009F779093C500A6
:100310008093C40088E98093C10086E08093C20086
:1003200008952091DD022F5F2F719091DC02291733
:10033000E1F3E22FF0E0E250FD4F80832093DD02F5
:10034000E1ECF0E080818062808308950F931F9339
:10035000CF93DF93CDB7DEB72F970FB6F894DEBFFC
:100360000FBECDBF4AE0BE016F5F7F4F71D2898162
:10037000882349F08E010E5F1F4FD3DFF801819172
:100380008F018111FACF2F960FB6F894DEBF0FBE02
:10039000CDBFDF91CF911F910F910895CF93DF9340
:1003A000EC018881882329F02196BBDF8991811196
:1003B000FCCFDF91CF9108953091DB022091DA02DA
:1003C00081E090E0321302C080E090E008951F9237
:1003D0000F920FB60F9211240BB60F922F938F939B
:1003E0009F93EF93FF938091C8002091CE00887176
:1003F000E0919602EF5FEF7190919502E91739F065
:10040000E0939602F0E0E756FD4F208301C082E0C2
:1004100080939402FF91EF919F918F912F910F9074
:100420000BBE0F900FBE0F901F9018951F920F924A
:100430000FB60F9211240BB60F928F939F93EF93E9
:10044000FF939091980280919702981769F0E0913C
:100450009702EF5FEF71E0939702F0E0E754FD4FF2
:1004600080818093CE0005C0E9ECF0E080818F7D33
:100470008083FF91EF919F918F910F900BBE0F9012
:100480000FBE0F901F9018951F920F920FB60F92EC
:1004900011240BB60F922F938F939F93EF93FF939B
:1004A0008091D0002091D6008871E0915102EF5FD9
:1004B000EF7190915002E91739F0E0935102F0E0AA
:1004C000EC5AFD4F208301C082E080934F02FF91E0
:1004D000EF919F918F912F910F900BBE0F900FBEB8
:1004E0000F901F9018951F920F920FB60F92112424
:1004F0000BB60F928F939F93EF93FF9390915302BC
:1005000080915202981769F0E0915202EF5FEF710B
:10051000E0935202F0E0EC58FD4F80818093D600CA
:1005200005C0E1EDF0E080818F7D8083FF91EF9148
:100530009F918F910F900BBE0F900FBE0F901F9049
:1005400018951F920F920FB60F9211240BB60F92AF
:100550002F938F939F93EF93FF938091300120917E
:1005600036018871E0910C02EF5FEF7190910B0200
:10057000E91739F0E0930C02F0E0E15FFD4F2083D2
:1005800001C082E080930A02FF91EF919F918F91C9
:100590002F910F900BBE0F900FBE0F901F901895CC
:1005A0001F920F920FB60F9211240BB60F928F93DA
:1005B0009F93EF93FF9390910E0280910D029817F5
:1005C00069F0E0910D02EF5FEF71E0930D02F0E052
:1005D000E15DFD4F80818093360105C0E1E3F1E0EC
:1005E00080818F7D8083FF91EF919F918F910F90FC
:1005F0000BBE0F900FBE0F901F90189504D06894FB
:10060000B1118DC0089570D088F09F5790F0B92F28
:100610009927B751A0F0D1F0660F771F881F991F57
:100620001AF0BA95C9F712C0B13081F077D0B1E0B5
:10063000089574C0672F782F8827B85F39F0B93FC5
:10064000CCF3869577956795B395D9F73EF4909559
:100650008095709561957F4F8F4F9F4F0895E894D7
:1006600009C097FB3EF490958095709561957F4FFA
:100670008F4F9F4F9923A9F0F92F96E9BB279395A8
:10068000F695879577956795B795F111F8CFFAF4B8
:10069000BB0F11F460FF1BC06F5F7F4F8F4F9F4FE9
:1006A00016C0882311F096E911C0772321F09EE847
:1006B000872F762F05C0662371F096E8862F70E0AD
:1006C00060E02AF09A95660F771F881FDAF7880F87
:1006D0009695879597F9089557FD9058440F551FA3
:1006E00059F05F3F71F04795880F97FB991F61F0B4
:1006F0009F3F79F087950895121613061406551F2B
:10070000F2CF4695F1DF08C0161617061806991F96
:10071000F1CF86957105610508940895E894BB278B
:1007200066277727CB0197F908950BD078C069D059
:1007300028F06ED018F0952309F05AC05FC011243C
:10074000EECFCADFA0F3959FD1F3950F50E0551F70
:10075000629FF001729FBB27F00DB11D639FAA2716
:10076000F00DB11DAA1F649F6627B00DA11D661F65
:10077000829F2227B00DA11D621F739FB00DA11D86
:10078000621F839FA00D611D221F749F3327A00D40
:10079000611D231F849F600D211D822F762F6A2FDC
:1007A00011249F5750408AF0E1F088234AF0EE0F61
:1007B000FF1FBB1F661F771F881F91505040A9F76E
:1007C0009E3F510570F014C0AACF5F3FECF3983EF6
:1007D000DCF3869577956795B795F795E7959F5FD5
:1007E000C1F7FE2B880F911D9695879597F908956F
:1007F00097F99F6780E870E060E008959FEF80ECD4
:10080000089500240A941616170618060906089576
:1008100000240A9412161306140605060895092EDC
:100820000394000C11F4882352F0BB0F40F4BF2B4B
:1008300011F460FF04C06F5F7F4F8F4F9F4F08958B
:10084000EE0FFF1F881F8BBF0790F691E02D1994C4
:10085000BB274A3031F4992322F4BDE2909581956B
:100860009F4F01C0BB27FB015527AA27880F991F5F
:10087000AA1FA41710F0A41B83955051B9F7A05DCF
:10088000AA3308F0A95DA193009779F7B111B1934C
:100890001192CB0100C0DC01FC01672F719177231D
:1008A000E1F7329704C07C916D9370836291AE172B
:0A08B000BF07C8F30895F894FFCFC6
:0608BA000909000D0A000F
:00000001FF
