:1000000081C00000D1C4000009C50000EAC400009E
:1000100022C50000A7C00000A5C00000A3C00000CA
:10002000A1C000009FC000009DC000009BC0000058
:1000300099C0000097C0000095C0000093C0000068
:1000400091C000008FC000008DC000008BC0000078
:1000500089C0000087C0000085C0000019C50000ED
:1000600081C0000044C7000071C700007BC00000D1
:1000700079C0000077C0000075C0000073C00000A8
:1000800071C000006FC000006DC000006BC00000B8
:10009000E2C700000C945A0865C0000063C000006D
:1000A00061C000005FC000005DC000005BC00000D8
:1000B00059C0000057C0000055C0000053C00000E8
:1000C00051C000004FC000004DC000000C948808D3
:1000D0000C94B70847C000000C94E5080C94140970
:1000E00041C0000005A84CCDB2D44EB93836A902A3
:1000F0000C50B9918688083CA6AAAA2ABE00000026
:10010000803FCB0511241FBECFEFD1E2DEBFCDBFB4
:1001100000E00CBF12E0A0E0B2E0E2E8F7E100E0AE
:100120000BBF02C007900D92AC34B107D9F723E0A2
:10013000ACE4B2E001C01D92A23DB207E1F710E0CD
:10014000C2E8D0E000E006C021970109802FFE013F
:100150000E94B70BC138D10780E00807A9F7E0D3A8
:100160000C94BF0B4DCF78948FEF809369008DB3C3
:100170008F608DBB0895789485B5856085BD81E0DD
:1001800080936E000895CF93DF93EC0168834ED582
:10019000CE0130D660E070E0CE016DD6DF91CF9118
:1001A00008954F925F926F927F928F929F92AF923B
:1001B000BF92CF92DF92EF92FF92CF93DF93609145
:1001C00064027091650280916602909167020E94BC
:1001D000120A6B017C01EAEAF2E071836083868592
:1001E0009785181619063CF48C199D099093AF0257
:1001F0008093AE0208C0992334F48C0D9D1D90931A
:10020000AF028093AE02CAEAD2E06C817D81072EF4
:10021000000C880B990B0E94450A2B013C01209190
:10022000BA023091BB024091BC025091BD020E94C3
:100230000A0B2E813F81488559850E9443094B0155
:100240005C016E837F838887998720913902309182
:100250003A0240913B0250913C02C301B2010E941C
:100260000A0BA50194010E9443094B015C018A8598
:100270009B85B601681B790B072E000C880B990B28
:100280000E94450A20913502309136024091370292
:10029000509138020E940A0B9B01AC01C501B401C8
:1002A000F1D70E94120A7B836A83DB86CA862C857B
:1002B0003D85620F731F6A3F71052CF47093B7027E
:1002C0006093B60206C089EF90E09093B7028093E6
:1002D000B6026091B6027091B7028FE492E0CBD57E
:1002E000DF91CF91FF90EF90DF90CF90BF90AF90D4
:1002F0009F908F907F906F905F904F9008954F9256
:100300005F926F927F928F929F92AF92BF92CF92A5
:10031000DF92EF92FF92CF93DF9360915E02709134
:100320005F0280916002909161020E94120A6B014B
:100330007C01EAE9F2E0718360838685978518166F
:1003400019063CF48C199D0990939F0280939E029C
:1003500008C0992334F48C0D9D1D90939F028093C7
:100360009E02CAE9D2E06C817D81072E000C880BC9
:10037000990B0E94450A2B013C012091BA02309151
:10038000BB024091BC025091BD020E940A0B2E811B
:100390003F814885598577D74B015C016E837F8308
:1003A000888799872091390230913A0240913B0227
:1003B00050913C02C301B2010E940A0BA5019401B5
:1003C00062D74B015C018A859B85B601681B790B5E
:1003D000072E000C880B990B0E94450A20913502CC
:1003E0003091360240913702509138020E940A0B38
:1003F0009B01AC01C501B40145D70E94120A7B8361
:100400006A83DB86CA862C853D85620F731F6A3F2F
:1004100071052CF47093A7026093A60206C089EFC1
:1004200090E09093A7028093A6026091A60270913B
:10043000A7028EE492E01FD5DF91CF91FF90EF905D
:10044000DF90CF90BF90AF909F908F907F906F90F4
:100450005F904F9008954F925F926F927F928F922C
:100460009F92AF92BF92CF92DF92EF92FF92CF9383
:10047000DF93609158027091590280915A029091D5
:100480005B02D0D76B017C01EAE8F2E07183608304
:1004900086859785181619063CF48C199D0990934A
:1004A0008F0280938E0208C0992334F48C0D9D1D19
:1004B00090938F0280938E02CAE8D2E06C817D8196
:1004C000072E000C880B990BE0D72B013C012091E3
:1004D000BA023091BB024091BC025091BD020E9411
:1004E0000A0B2E813F8148855985CDD64B015C0191
:1004F0006E837F83888799872091390230913A02F1
:1005000040913B0250913C02C301B2010E940A0B90
:10051000A5019401B8D64B015C018A859B85B60183
:10052000681B790B072E000C880B990BAED7209116
:1005300035023091360240913702509138020E94C4
:100540000A0B9B01AC01C501B4019CD66BD77B8320
:100550006A83DB86CA862C853D85620F731F6A3FDE
:1005600071052CF4709397026093960206C089EF90
:1005700090E090939702809396026091960270911A
:1005800097028DE492E077D4DF91CF91FF90EF90C6
:10059000DF90CF90BF90AF909F908F907F906F90A3
:1005A0005F904F9008954F925F926F927F928F92DB
:1005B0009F92AF92BF92CF92DF92EF92FF92CF9332
:1005C000DF93609152027091530280915402909196
:1005D000550228D76B017C01EAE7F2E07183608362
:1005E00086859785181619063CF48C199D099093F9
:1005F0007F0280937E020CC02091B8023091B90234
:10060000332334F48C0D9D1D90937F0280937E02E2
:10061000CAE7D2E06C817D81072E000C880B990B14
:1006200034D72B013C012091BA023091BB0240919A
:10063000BC025091BD02EED72E813F81488559857D
:1006400022D64B015C016E837F8388879987209136
:10065000390230913A0240913B0250913C02C30171
:10066000B201D8D7A50194010ED64B015C018A8551
:100670009B85B601681B790B072E000C880B990B24
:1006800004D72091350230913602409137025091C3
:100690003802C0D79B01AC01C501B401F3D5C2D665
:1006A0007B836A83DB86CA862C853D85620F731F38
:1006B0006A3F71052CF4709387026093860206C02E
:1006C00089EF90E090938702809386026091860282
:1006D000709187028CE492E0CED3DF91CF91FF90AE
:1006E000EF90DF90CF90BF90AF909F908F907F90D2
:1006F0006F905F904F9008952F923F924F925F922C
:100700006F927F928F929F92AF92BF92CF92DF9221
:10071000EF92FF920F931F93CF93DF9300D01F921E
:10072000CDB7DEB70F2EFEE6EF2EF2E0FF2EF02D56
:100730000F2EF5E02F2EF2E03F2EF02D0F2EFEE6CD
:100740008F2EF2E09F2EF02DFA82E98288E692E069
:100750009C838B838101A12CB12CC12CD12CEB81EA
:10076000FC8161917191FC83EB83F8014190519080
:10077000619071908F01072E000C880B990B85D624
:10078000A301920147D79B01AC016A2D7B2D8C2DD3
:100790009D2D79D5A62EB72EC82ED92E8B819C8162
:1007A00088159905E1F68A2D9B2DAC2DBD2DE9818B
:1007B000FA8180839183A283B383F4E0EF0EF11C6E
:1007C0008CE0280E311C9EE7E91692E0F90609F04C
:1007D000BBCF20E030E048EB51E4EEE6F2E0608190
:1007E00071818281938116D720E030E049E753E49C
:1007F000B1D518D67093B9026093B80220E030E00A
:1008000048EB51E46091720270917302809174021E
:1008100090917502FFD620E030E049E753E49AD585
:1008200001D67093A9026093A80220E030E048EB63
:1008300051E46091760270917702809178029091F4
:100840007902E8D620E030E049E753E483D5EAD5E1
:10085000709399026093980220E030E048EB51E4F5
:1008600060917A0270917B0280917C0290917D026E
:10087000D1D620E030E049E753E46CD5D3D570936E
:100880008902609388020F900F900F900F90DF9174
:10089000CF911F910F91FF90EF90DF90CF90BF907D
:1008A000AF909F908F907F906F905F904F903F9010
:1008B0002F900895CF92DF92EF92FF92CF93DF9324
:1008C000BC01990F880B990BE0D520910102309162
:1008D000020240910302509104029CD66B017C01FC
:1008E00036D5C8E6D2E020E030E048EC52E492D6BB
:1008F00099D579836883C701B601EFD620E030E04F
:1009000048EC52E487D68ED57B836A831D821C8295
:10091000F3DEDF91CF91FF90EF90DF90CF900895BD
:10092000789487E690E040D30F2EFAEACF2EF2E0DB
:10093000DF2EF02D0F2EFAE9EF2EF2E0FF2EF02D34
:100940000AE812E0CAE7D2E08DE392E076D345D31D
:1009500080930002883721F480E090E0ABDF1FC075
:10096000893721F48AE590E0A5DF19C0853621F4A6
:100970008DE290E09FDF13C0813721F48CE390E09B
:1009800099DF0DC0833759F4F60117861686F701F3
:1009900017861686F801178616861F861E8601DCC6
:1009A000AEDC59DD00DED0CF1F920F920FB60F9252
:1009B00011240BB60F928F939F93EF93FF93E2E670
:1009C000F2E080819181019691838083FF91EF9184
:1009D0009F918F910F900BBE0F900FBE0F901F90A5
:1009E00018951F920F920FB60F9211240BB60F920B
:1009F0008F939F93EF93FF93ECE5F2E080819181D9
:100A0000019691838083FF91EF919F918F910F9039
:100A10000BBE0F900FBE0F901F9018951F920F9254
:100A20000FB60F9211240BB60F928F939F93EF93F3
:100A3000FF93E6E5F2E080819181019691838083C6
:100A4000FF91EF919F918F910F900BBE0F900FBE72
:100A50000F901F9018951F920F920FB60F921124AE
:100A60000BB60F928F939F93EF93FF93E0E5F2E025
:100A700080819181019691838083FF91EF919F9175
:100A80008F910F900BBE0F900FBE0F901F90189577
:100A90001F920F920FB60F9211240BB60F92CF92A6
:100AA000DF92EF92FF920F931F932F933F934F93F9
:100AB0005F936F937F938F939F93AF93BF93CF93E6
:100AC000DF93EF93FF930F2EF2E6CF2EF2E0DF2EAF
:100AD000F02DF60160817181072E000C880B990BB7
:100AE000D4D4F60162837383848395830F2EFCE54F
:100AF000EF2EF2E0FF2EF02DF70160817181072EBD
:100B0000000C880B990BC1D4F70162837383848333
:100B1000958306E512E0F80160817181072E000CD3
:100B2000880B990BB2D4F801628373838483958315
:100B3000C0E5D2E068817981072E000C880B990B03
:100B4000A4D46A837B838C839D83F60111821082F7
:100B5000F70111821082F801118210821982188225
:100B6000FF91EF91DF91CF91BF91AF919F918F91C5
:100B70007F916F915F914F913F912F911F910F91B5
:100B8000FF90EF90DF90CF900F900BBE0F900FBEB5
:100B90000F901F9018958AE090E09093B702809391
:100BA000B6029093A7028093A60290939702809337
:100BB00096029093870280938602109263021092AD
:100BC000620282E692E0CFDA82E692E0D4DA109214
:100BD0005D0210925C028CE592E0C5DA8CE592E051
:100BE000CADA109257021092560286E592E0BBDAFA
:100BF00086E592E0C0DA109251021092500280E530
:100C000092E0B1DA80E592E0B6DA61E08FE492E05A
:100C1000BADA62E08EE492E0B6DA63E08DE492E064
:100C2000B2DA64E08CE492E0AECA0895FC018081FF
:100C30008130F1F4E7E0F1E080818064808380819D
:100C400080688083EAE0F1E0808180628083E0E276
:100C5000F1E080818A608083E1E2F1E080818A6155
:100C6000808389EF90E09093270180932601089577
:100C70008230F1F4E7E0F1E080818460808380815C
:100C800088608083EAE0F1E0808188608083E0E230
:100C9000F1E0808182688083E1E2F1E080818A6115
:100CA000808389EF90E09093270180932601089537
:100CB0008330F1F4E7E0F1E080818061808380811E
:100CC00080628083EAE0F1E0808180618083E0E2FD
:100CD000F1E0808182628083E1E2F1E080818A61DB
:100CE000808389EF90E090932701809326010895F7
:100CF0008430E9F4E7E0F1E08081816080838081E5
:100D000082608083E1E0F1E0808188608083E0EAB6
:100D1000F0E0808182688083E1EAF0E080818A618E
:100D2000808389EF90E09093A7008093A6000895B8
:100D3000FC018081823091F018F4813031F0089507
:100D40008330A9F08430E1F00895E8E0F1E080819B
:100D50008064808380818F7780830895E8E0F1E06C
:100D60008081846080838081877F80830895E8E02C
:100D7000F1E080818061808380818F7D8083089510
:100D8000E8E0F1E080818160808380818D7F8083D5
:100D90000895FC018081823091F018F4813031F0A7
:100DA00008958330A9F08430E1F00895E8E0F1E09F
:100DB00080818F7B80838081806880830895E8E0D4
:100DC000F1E080818B7F80838081886080830895BB
:100DD000E8E0F1E080818F7E808380818062808383
:100DE0000895E8E0F1E080818E7F808380818260D9
:100DF00080830895FC0180818230B1F018F4813045
:100E000031F008958330E9F0843041F10895E8E04D
:100E1000F1E080818F7B808380818F778083109247
:100E20002D0110922C010895E8E0F1E080818B7F84
:100E300080838081877F808310922901109228010E
:100E40000895E8E0F1E080818F7E808380818F7D4E
:100E5000808310922B0110922A010895E8E0F1E0BE
:100E600080818E7F808380818D7F80831092A90016
:100E70001092A80008950F931F93CF93DF938C01D6
:100E8000EB011C161D060CF453DFC93FD10544F4D9
:100E9000DD2344F4D195C195D109C8017ADF02C0A0
:100EA000C9EFD0E0F8018081823071F018F4813010
:100EB00031F018C0833069F0843081F013C0D093D2
:100EC0002D01C0932C010EC0D0932901C09328019D
:100ED00009C0D0932B01C0932A0104C0D093A9006C
:100EE000C093A800DF91CF911F910F9108951F9299
:100EF0000F920FB60F9211240BB60F922F938F9370
:100F00009F93EF93FF938091C0002091C60088715A
:100F1000E0918F03EF5FEF7190918E03E91739F045
:100F2000E0938F03F0E0EE56FC4F208301C082E097
:100F300080938D03FF91EF919F918F912F910F904F
:100F40000BBE0F900FBE0F901F9018951F920F921F
:100F50000FB60F9211240BB60F928F939F93EF93BE
:100F6000FF939091910380919003981769F0E0911D
:100F70009003EF5FEF71E0939003F0E0EE54FC4FCD
:100F800080818093C60005C0E1ECF0E080818F7D18
:100F90008083FF91EF919F918F910F900BBE0F90E7
:100FA0000FBE0F901F90189510929103109290030E
:100FB00010928F0310928E03992324F422E0209341
:100FC000C0009F779093C5008093C40088E9809308
:100FD000C10086E08093C200089590918F038091B4
:100FE0008E03981791F0E0918E03EF5FEF71E0931D
:100FF0008E03F0E0EE56FC4F208180918D0390E04F
:10100000982F8827820F911D089580E091E0089520
:10101000209191032F5F2F71909190032917E1F395
:10102000E22FF0E0EE54FC4F808320939103E1EC3B
:10103000F0E08081806280830895CF93DF93EC019C
:101040008881882329F02196E3DF89918111FCCFE3
:10105000DF91CF9108951F920F920FB60F92112436
:101060000BB60F922F938F939F93EF93FF938091E3
:10107000C8002091CE008871E0914A03EF5FEF71C4
:1010800090914903E91739F0E0934A03F0E0E35BFC
:10109000FC4F208301C082E080934803FF91EF91D1
:1010A0009F918F912F910F900BBE0F900FBE0F90BD
:1010B0001F9018951F920F920FB60F9211240BB626
:1010C0000F928F939F93EF93FF9390914C03809196
:1010D0004B03981769F0E0914B03EF5FEF71E093DA
:1010E0004B03F0E0E359FC4F80818093CE0005C0B4
:1010F000E9ECF0E080818F7D8083FF91EF919F91FB
:101100008F910F900BBE0F900FBE0F901F901895F0
:101110001F920F920FB60F9211240BB60F922F93BE
:101120008F939F93EF93FF938091D0002091D600EF
:101130008871E0910503EF5FEF7190910403E91767
:1011400039F0E0930503F0E0E85FFC4F208301C035
:1011500082E080930303FF91EF919F918F912F91F4
:101160000F900BBE0F900FBE0F901F9018951F92FF
:101170000F920FB60F9211240BB60F928F939F937D
:10118000EF93FF939091070380910603981769F0FE
:10119000E0910603EF5FEF71E0930603F0E0E85D96
:1011A000FC4F80818093D60005C0E1EDF0E08081A6
:1011B0008F7D8083FF91EF919F918F910F900BBE58
:1011C0000F900FBE0F901F9018951F920F920FB6A1
:1011D0000F9211240BB60F922F938F939F93EF933F
:1011E000FF9380913001209136018871E091C00217
:1011F000EF5FEF719091BF02E91739F0E093C00201
:10120000F0E0ED53FD4F208301C082E08093BE02E9
:10121000FF91EF919F918F912F910F900BBE0F90A7
:101220000FBE0F901F9018951F920F920FB60F923E
:1012300011240BB60F928F939F93EF93FF9390918E
:10124000C2028091C102981769F0E091C102EF5F7C
:10125000EF71E093C102F0E0ED51FD4F808180938A
:10126000360105C0E1E3F1E080818F7D8083FF914D
:10127000EF919F918F910F900BBE0F900FBE0F902B
:101280001F9018955058BB27AA270ED078C141D17E
:1012900030F046D120F031F49F3F11F41EF436C1F6
:1012A0000EF4E095E7FB2CC1E92F8BD180F3BA1740
:1012B000620773078407950718F071F49EF5A3C1C0
:1012C0000EF4E0950B2EBA2FA02D0B01B901900161
:1012D0000C01CA01A0011124FF27591B99F0593FA5
:1012E00050F4503E68F11A16F040A22F232F342FED
:1012F0004427585FF3CF469537952795A795F0403B
:101300005395C9F77EF41F16BA0B620B730B840B4F
:10131000BAF09150A1F0FF0FBB1F661F771F881F07
:10132000C2F70EC0BA0F621F731F841F48F487955F
:1013300077956795B795F7959E3F08F0B3CF93954E
:10134000880F08F09927EE0F979587950895F0D0AC
:10135000E39526C10CD013C1E3D040F0DAD030F0D1
:1013600021F45F3F19F0CCC051114EC1CFC029D13B
:1013700098F39923C9F35523B1F3951B550BBB275C
:10138000AA2762177307840738F09F5F5F4F220F09
:10139000331F441FAA1FA9F333D00E2E3AF0E0E802
:1013A00030D091505040E695001CCAF729D0FE2F4E
:1013B00027D0660F771F881FBB1F261737074807E0
:1013C000AB07B0E809F0BB0B802DBF01FF27935896
:1013D0005F4F2AF09E3F510568F092C015C15F3FF4
:1013E000ECF3983EDCF3869577956795B795F7957E
:1013F0009F5FC9F7880F911D9695879597F9089576
:10140000E1E0660F771F881FBB1F62177307840711
:10141000BA0720F0621B730B840BBA0BEE1F88F720
:10142000E095089504D06894B111EEC00895D1D02C
:1014300088F09F5790F0B92F9927B751A0F0D1F0BD
:10144000660F771F881F991F1AF0BA95C9F712C047
:10145000B13081F0D8D0B1E00895D5C0672F782F92
:101460008827B85F39F0B93FCCF3869577956795B3
:10147000B395D9F73EF490958095709561957F4F1F
:101480008F4F9F4F0895E89409C097FB3EF49095C5
:101490008095709561957F4F8F4F9F4F9923A9F04D
:1014A000F92F96E9BB279395F695879577956795DC
:1014B000B795F111F8CFFAF4BB0F11F460FF1BC020
:1014C0006F5F7F4F8F4F9F4F16C0882311F096E9B3
:1014D00011C0772321F09EE8872F762F05C0662361
:1014E00071F096E8862F70E060E02AF09A95660F1A
:1014F000771F881FDAF7880F9695879597F90895D3
:1015000097F99F6780E870E060E008959FEF80ECB6
:10151000089500240A941616170618060906089559
:1015200000240A9412161306140605060895EECF39
:1015300050D0E8F3E894E0E0BB279F57F0F02AEDA5
:101540003FE049EC06C0EE0FBB0F661F771F881FF8
:1015500028F0B23A62077307840728F0B25A620B88
:10156000730B840BE3959A9572F7803830F49A9553
:10157000BB0F661F771F881FD2F79048B6C0092E91
:101580000394000C11F4882352F0BB0F40F4BF2BDE
:1015900011F460FF04C06F5F7F4F8F4F9F4F08951E
:1015A000EF93E0FF06C0A2EA2AED3FE049EC5FEBD3
:1015B0007BDEE5DF0F90039401FC9058E4EEF0E051
:1015C000A0C057FD9058440F551F59F05F3F71F070
:1015D0004795880F97FB991F61F09F3F79F087959A
:1015E0000895121613061406551FF2CF4695F1DF23
:1015F00008C0161617061806991FF1CF86957105B3
:10160000610508940895E894BB2766277727CB01E6
:1016100097F908950BD0B3CF7CDF28F081DF18F065
:10162000952309F06DCF72CF1124EECFCADFA0F35E
:10163000959FD1F3950F50E0551F629FF001729F67
:10164000BB27F00DB11D639FAA27F00DB11DAA1F86
:10165000649F6627B00DA11D661F829F2227B00DD3
:10166000A11D621F739FB00DA11D621F839FA00D5E
:10167000611D221F749F3327A00D611D231F849FAE
:10168000600D211D822F762F6A2F11249F57504005
:101690008AF0E1F088234AF0EE0FFF1FBB1F661FA0
:1016A000771F881F91505040A9F79E3F510570F059
:1016B00027CFAACF5F3FECF3983EDCF38695779572
:1016C0006795B795F795E7959F5FC1F7FE2B880F54
:1016D000911D9695879597F908959F9329DF0F900F
:1016E00007FCEE5F5DCF9F3F31F0915020F487956E
:1016F00077956795B795880F911D9695879597F97A
:1017000008959F938F937F936F93FF93EF939B0124
:10171000AC0180DFEF91FF9105D02F913F914F9168
:101720005F9178CFDF93CF931F930F93FF92EF9248
:10173000DF927B018C01689405C0DA2EEF0176DF21
:10174000FE01E894A5912591359145915591AEF30F
:10175000EF01AADDFE019701A801DA9479F7DF9085
:10176000EF90FF900F911F91CF91DF910895EE0FB1
:10177000FF1F881F8BBF0790F691E02D1994F894F6
:02178000FFCF99
:101782002035FA8E3C000080BF0000803F000080C0
:101792003F000080BF000080BF0000803F0000804B
:1017A2003F000080BF0000803F0000803F000080BB
:1017B2003F0000803F0000A0400000803F41626582
:0C17C2006865736820646F6E200D0A00DB
:00000001FF
