:100000000C944B000C9468000C9468000C946800ED
:100010000C9468000C9468000C9468000C946800C0
:100020000C9468000C9468000C9468000C946800B0
:100030000C9468000C9468000C9468000C946800A0
:100040000C9468000C9468000C94B0010C94DB01D3
:100050000C9468000C9468000C9468000C94680080
:100060000C9468000C946800084AD73B3BCE016EA4
:1000700084BCBFFDC12F3D6C74319ABD56833DDAFF
:100080003D00C77F11BED9E4BB4C3E916BAAAABE0E
:10009000000000803F0011241FBECFEFD8E0DEBF7C
:1000A000CDBF11E0A0E0B1E0E0EBFAE002C00590C6
:1000B0000D92AE33B107D9F721E0AEE3B1E001C054
:1000C0001D92A938B207E1F70E9407010C9456056A
:1000D0000C9400000E944F018CE30E94550180E0C7
:1000E0000E94880180E70E9488010E947F018CE3C2
:1000F0000E94550181E00E94880180EA0E948801E7
:100100000E947F018CE30E94550182E00E948801D9
:1001100080E00E9488010E947F0108958CE30E9484
:10012000550183E00E9488010E947F018DE30E94B7
:100130007C010E949A0110924201809343010E9427
:100140009A012091420130914301282B30934301C1
:10015000209342010E949A0110923E0180933F0138
:100160000E949A0120913E0130913F01282B30934B
:100170003F0120933E010E949A011092400180931A
:1001800041010E94A5012091400130914101282B9D
:1001900030934101209340010E947F010895CF9246
:1001A000DF92EF92FF926091420170914301072E1E
:1001B000000C880B990B0E94F5036B017C01809168
:1001C000400190914101BC01990F880B990B0E944D
:1001D000F503A70196010E94EC0220E030E044E321
:1001E00053E40E94B0042BED3FE049E450E40E9448
:1001F0004B0320E030E044E353E40E946D020E9490
:10020000BD03CB01FF90EF90DF90CF9008957894DD
:1002100087E690E00E9405020E946A0080E091E07B
:100220000E945D022FEF85EA9EE0215080409040C1
:10023000E1F700C000008BE191E00E945D022FEF2A
:1002400085EA9EE0215080409040E1F700C0000028
:1002500085E191E00E945D020E948E0082E291E0C1
:100260000E945D0280914201909143010E943302FD
:100270008AE291E00E945D028091400190914101EB
:100280000E94330283E391E00E945D020E94CF004E
:100290000E9433028FE191E00E945D02DDCF109257
:1002A000B90088E48093B800089594EA9093BC0064
:1002B000ECEBF0E090819923ECF79091B900987FF6
:1002C000983011F09031A1F48093BB0084E88093C2
:1002D000BC00ECEBF0E080818823ECF79091B90052
:1002E000987F983139F081E0903429F480E00895C6
:1002F00081E0089580E008950E945501089584E901
:100300008093BC00ECEBF0E0808184FDFDCF08958C
:100310008093BB0084E88093BC00ECEBF0E080812C
:100320008823ECF79091B900987F81E0983209F426
:1003300080E0089584EC8093BC00ECEBF0E08081D9
:100340008823ECF78091BB00089584E88093BC007B
:10035000ECEBF0E080818823ECF78091BB000895FE
:100360001F920F920FB60F9211242F938F939F938A
:10037000EF93FF938091C0002091C6008871E091B7
:100380004601EF5FEF7190914501E91739F0E09375
:100390004601F0E0E75BFE4F208301C082E08093DE
:1003A0004401FF91EF919F918F912F910F900FBE7C
:1003B0000F901F9018951F920F920FB60F92112455
:1003C0008F939F93EF93FF93909148018091470102
:1003D000981769F0E0914701EF5FEF71E0934701F3
:1003E000F0E0E759FE4F80818093C60005C0E1EC44
:1003F000F0E080818F7D8083FF91EF919F918F91BD
:100400000F900FBE0F901F901895109248011092F8
:1004100047011092460110924501992324F422E0ED
:100420002093C0009F779093C5008093C40088E913
:100430008093C10086E08093C20008952091480116
:100440002F5F2F71909147012917E1F3E22FF0E020
:10045000E759FE4F808320934801E1ECF0E0808172
:100460008062808308950F931F93CF93DF93CDB75E
:10047000DEB72F970FB6F894DEBF0FBECDBF4AE0B0
:10048000BE016F5F7F4F0E9421058981882351F053
:100490008E010E5F1F4F0E941E02F80181918F0195
:1004A0008111F9CF2F960FB6F894DEBF0FBECDBFE6
:1004B000DF91CF911F910F910895CF93DF93EC01BE
:1004C0008881882331F021960E941E028991811132
:1004D000FBCFDF91CF9108955058BB27AA270E94E8
:1004E00084020C946E040E94600438F00E94670439
:1004F00020F039F49F3F19F426F40C9436040EF4DE
:10050000E095E7FB0C943004E92F0E947F0458F338
:10051000BA17620773078407950720F079F4A6F5E8
:100520000C94A1040EF4E0950B2EBA2FA02D0B0114
:10053000B90190010C01CA01A0011124FF27591B28
:1005400099F0593F50F4503E68F11A16F040A22F2E
:10055000232F342F4427585FF3CF4695379527959F
:10056000A795F0405395C9F77EF41F16BA0B620B9E
:10057000730B840BBAF09150A1F0FF0FBB1F661FE5
:10058000771F881FC2F70EC0BA0F621F731F841F28
:1005900048F4879577956795B795F7959E3F08F04E
:1005A000B0CF9395880F08F09927EE0F9795879510
:1005B00008950E94600460F080E891E009F49EEFE5
:1005C0000E94670428F040E851E071F45EEF0CC02F
:1005D0000C9436040C94A104E92FE0780E947F0467
:1005E00040F3092E052AB1F32617370748075907A4
:1005F00038F00E2E07F8E02569F0E025E0640AC027
:10060000EF6307F8009407FADB01B9019D01DC01F3
:10061000CA01AD01EF930E9462030E946E040E9422
:100620001C035F91552339F02BED3FE049E450FD69
:1006300049EC0C946D020895DF93DD27B92FBF7745
:1006400040E85FE31616170648075B0718F4D92F32
:100650000E94A8049F938F937F936F930E941D0520
:10066000E8E6F0E00E9439040E946E042F913F9169
:100670004F915F910E94C304DD2351F09058A2EA8C
:100680002AED3FE049EC5FE3D0785D270E948402C9
:10069000DF910C946E040E945F030C946E040E9420
:1006A000670458F00E94600440F029F45F3F29F08D
:1006B0000C94300451110C94A2040C9436040E9442
:1006C0007F0468F39923B1F3552391F3951B550BE0
:1006D000BB27AA2762177307840738F09F5F5F4F15
:1006E000220F331F441FAA1FA9F335D00E2E3AF054
:1006F000E0E832D091505040E695001CCAF72BD06C
:10070000FE2F29D0660F771F881FBB1F26173707BC
:100710004807AB07B0E809F0BB0B802DBF01FF27EE
:1007200093585F4F3AF09E3F510578F00C94300497
:100730000C94A2045F3FE4F3983ED4F3869577953A
:100740006795B795F7959F5FC9F7880F911D9695A7
:10075000879597F90895E1E0660F771F881FBB1F03
:10076000621773078407BA0720F0621B730B840BB0
:10077000BA0BEE1F88F7E09508950E94C4036894B1
:10078000B1110C94A20408950E94870488F09F5729
:1007900098F0B92F9927B751B0F0E1F0660F771FA5
:1007A000881F991F1AF0BA95C9F714C0B13091F09B
:1007B0000E94A104B1E008950C94A104672F782F42
:1007C0008827B85F39F0B93FCCF386957795679560
:1007D000B395D9F73EF490958095709561957F4FCC
:1007E0008F4F9F4F0895E89409C097FB3EF4909572
:1007F0008095709561957F4F8F4F9F4F9923A9F0FA
:10080000F92F96E9BB279395F69587957795679588
:10081000B795F111F8CFFAF4BB0F11F460FF1BC0CC
:100820006F5F7F4F8F4F9F4F16C0882311F096E95F
:1008300011C0772321F09EE8872F762F05C066230D
:1008400071F096E8862F70E060E02AF09A95660FC6
:10085000771F881FDAF7880F9695879597F908957F
:1008600097F99F6780E870E060E008959FEF80EC63
:100870000895DF93CF931F930F93FF92EF92DF9230
:100880007B018C01689406C0DA2EEF010E94C3043C
:10089000FE01E894A5912591359145915591A6F3D6
:1008A000EF010E948402FE019701A801DA9469F722
:1008B000DF90EF90FF900F911F91CF91DF910895FE
:1008C00000240A941616170618060906089500242F
:1008D0000A9412161306140605060895092E0394A9
:1008E000000C11F4882352F0BB0F40F4BF2B11F41D
:1008F00060FF04C06F5F7F4F8F4F9F4F089557FD7C
:100900009058440F551F59F05F3F71F04795880F7D
:1009100097FB991F61F09F3F79F087950895121614
:1009200013061406551FF2CF4695F1DF08C01616C0
:1009300017061806991FF1CF869571056105089471
:100940000895E894BB2766277727CB0197F9089588
:100950009B01AC0160E070E080E89FE30C944B03E6
:100960000E94C3040C946E040E94600438F00E943C
:10097000670420F0952311F00C9430040C94360495
:1009800011240C94A2040E947F0470F3959FC1F37C
:10099000950F50E0551F629FF001729FBB27F00D2D
:1009A000B11D639FAA27F00DB11DAA1F649F662782
:1009B000B00DA11D661F829F2227B00DA11D621FD1
:1009C000739FB00DA11D621F839FA00D611D221F8B
:1009D000749F3327A00D611D231F849F600D211D6F
:1009E000822F762F6A2F11249F5750409AF0F1F0F2
:1009F00088234AF0EE0FFF1FBB1F661F771F881F5B
:100A000091505040A9F79E3F510580F00C9430045E
:100A10000C94A2045F3FE4F3983ED4F38695779557
:100A20006795B795F795E7959F5FC1F7FE2B880F00
:100A3000911D9695879597F908959B01AC010C94AB
:100A4000B004BB274A3031F4992322F4BDE29095DB
:100A500081959F4F0C942D05BB27FB015527AA2795
:100A6000880F991FAA1FA41710F0A41B839550513B
:100A7000B9F7A05DAA3308F0A95DA193009779F7B3
:100A8000B111B1931192CB010C944605DC01FC012C
:100A9000672F71917723E1F7329704C07C916D93B2
:100AA00070836291AE17BF07C8F30895F894FFCF23
:100AB000496E697469616C697A696E6720636F6DEC
:100AC00070617373202E2E2E0D0A002E2E2E200DF7
:100AD0000A0052415720583A2000095241572059E4
:0E0AE0003A200009616E676C65203D20000021
:00000001FF
